{
  "contractName": "Airbnb",
  "abi": [
    {
      "anonymous": false,
      "inputs": [
        {
          "indexed": true,
          "internalType": "uint256",
          "name": "propertyId",
          "type": "uint256"
        },
        {
          "indexed": true,
          "internalType": "uint256",
          "name": "bookingId",
          "type": "uint256"
        }
      ],
      "name": "NewBooking",
      "type": "event"
    },
    {
      "anonymous": false,
      "inputs": [
        {
          "indexed": true,
          "internalType": "uint256",
          "name": "propertyId",
          "type": "uint256"
        }
      ],
      "name": "NewProperty",
      "type": "event"
    },
    {
      "inputs": [],
      "name": "bookingId",
      "outputs": [
        {
          "internalType": "uint256",
          "name": "",
          "type": "uint256"
        }
      ],
      "stateMutability": "view",
      "type": "function",
      "constant": true
    },
    {
      "inputs": [
        {
          "internalType": "uint256",
          "name": "",
          "type": "uint256"
        }
      ],
      "name": "bookings",
      "outputs": [
        {
          "internalType": "uint256",
          "name": "propertyId",
          "type": "uint256"
        },
        {
          "internalType": "uint256",
          "name": "checkInDate",
          "type": "uint256"
        },
        {
          "internalType": "uint256",
          "name": "checkoutDate",
          "type": "uint256"
        },
        {
          "internalType": "address",
          "name": "user",
          "type": "address"
        }
      ],
      "stateMutability": "view",
      "type": "function",
      "constant": true
    },
    {
      "inputs": [
        {
          "internalType": "uint256",
          "name": "",
          "type": "uint256"
        }
      ],
      "name": "properties",
      "outputs": [
        {
          "internalType": "string",
          "name": "name",
          "type": "string"
        },
        {
          "internalType": "string",
          "name": "description",
          "type": "string"
        },
        {
          "internalType": "bool",
          "name": "isActive",
          "type": "bool"
        },
        {
          "internalType": "uint256",
          "name": "price",
          "type": "uint256"
        },
        {
          "internalType": "address payable",
          "name": "owner",
          "type": "address"
        }
      ],
      "stateMutability": "view",
      "type": "function",
      "constant": true
    },
    {
      "inputs": [],
      "name": "propertyId",
      "outputs": [
        {
          "internalType": "uint256",
          "name": "",
          "type": "uint256"
        }
      ],
      "stateMutability": "view",
      "type": "function",
      "constant": true
    },
    {
      "inputs": [
        {
          "internalType": "string",
          "name": "name",
          "type": "string"
        },
        {
          "internalType": "string",
          "name": "description",
          "type": "string"
        },
        {
          "internalType": "uint256",
          "name": "price",
          "type": "uint256"
        }
      ],
      "name": "rentOutproperty",
      "outputs": [],
      "stateMutability": "nonpayable",
      "type": "function"
    },
    {
      "inputs": [
        {
          "internalType": "uint256",
          "name": "_propertyId",
          "type": "uint256"
        },
        {
          "internalType": "uint256",
          "name": "checkInDate",
          "type": "uint256"
        },
        {
          "internalType": "uint256",
          "name": "checkoutDate",
          "type": "uint256"
        }
      ],
      "name": "rentProperty",
      "outputs": [],
      "stateMutability": "payable",
      "type": "function",
      "payable": true
    },
    {
      "inputs": [
        {
          "internalType": "uint256",
          "name": "_propertyId",
          "type": "uint256"
        }
      ],
      "name": "markPropertyAsInactive",
      "outputs": [],
      "stateMutability": "nonpayable",
      "type": "function"
    }
  ],
  "bytecode": "0x608060405234801561001057600080fd5b506112c5806100206000396000f3fe6080604052600436106100705760003560e01c8063b3e3f8031161004e578063b3e3f80314610109578063d2da7c7114610132578063ee7a3b8e1461014e578063f7b108081461017957610070565b80630a10df7c146100755780631dab301e146100a05780632c56ed27146100e0575b600080fd5b34801561008157600080fd5b5061008a6101ba565b6040516100979190610f58565b60405180910390f35b3480156100ac57600080fd5b506100c760048036038101906100c29190610c3e565b6101c0565b6040516100d79493929190610f73565b60405180910390f35b3480156100ec57600080fd5b5061010760048036038101906101029190610bbf565b610210565b005b34801561011557600080fd5b50610130600480360381019061012b9190610c3e565b6103f2565b005b61014c60048036038101906101479190610c67565b6104c8565b005b34801561015a57600080fd5b50610163610697565b6040516101709190610f58565b60405180910390f35b34801561018557600080fd5b506101a0600480360381019061019b9190610c3e565b61069d565b6040516101b1959493929190610e77565b60405180910390f35b60025481565b60036020528060005260406000206000915090508060000154908060010154908060020154908060030160009054906101000a900473ffffffffffffffffffffffffffffffffffffffff16905084565b60006040518060c001604052808581526020018481526020016001151581526020018381526020013373ffffffffffffffffffffffffffffffffffffffff16815260200161016d67ffffffffffffffff811115610296577f4e487b7100000000000000000000000000000000000000000000000000000000600052604160045260246000fd5b6040519080825280602002602001820160405280156102c45781602001602082028036833780820191505090505b50815250905080600160008054815260200190815260200160002060008201518160000190805190602001906102fb9291906109f9565b5060208201518160010190805190602001906103189291906109f9565b5060408201518160020160006101000a81548160ff0219169083151502179055506060820151816003015560808201518160040160006101000a81548173ffffffffffffffffffffffffffffffffffffffff021916908373ffffffffffffffffffffffffffffffffffffffff16021790555060a08201518160050190805190602001906103a6929190610a7f565b509050506000808154809291906103bc90611191565b919050557f49b7a39e21349b16cf820bbd35d2bc2d9f04dac75faa535510fc24d172b34afd60405160405180910390a250505050565b3373ffffffffffffffffffffffffffffffffffffffff166001600083815260200190815260200160002060040160009054906101000a900473ffffffffffffffffffffffffffffffffffffffff1673ffffffffffffffffffffffffffffffffffffffff1614610496576040517f08c379a000000000000000000000000000000000000000000000000000000000815260040161048d90610f38565b60405180910390fd5b60006001600083815260200190815260200160002060020160006101000a81548160ff02191690831515021790555050565b6000600160008581526020019081526020016000209050600115158160020160009054906101000a900460ff16151514610537576040517f08c379a000000000000000000000000000000000000000000000000000000000815260040161052e90610ed8565b60405180910390fd5b60008390505b828110156105fb5760011515826005018281548110610585577f4e487b7100000000000000000000000000000000000000000000000000000000600052603260045260246000fd5b90600052602060002090602091828204019190069054906101000a900460ff16151514156105e8576040517f08c379a00000000000000000000000000000000000000000000000000000000081526004016105df90610f18565b60405180910390fd5b80806105f390611191565b91505061053d565b508282610608919061108f565b81600301546106179190611035565b3414610658576040517f08c379a000000000000000000000000000000000000000000000000000000000815260040161064f90610ef8565b60405180910390fd5b6106868160040160009054906101000a900473ffffffffffffffffffffffffffffffffffffffff1634610810565b61069184848461085b565b50505050565b60005481565b60016020528060005260406000206000915090508060000180546106c09061115f565b80601f01602080910402602001604051908101604052809291908181526020018280546106ec9061115f565b80156107395780601f1061070e57610100808354040283529160200191610739565b820191906000526020600020905b81548152906001019060200180831161071c57829003601f168201915b50505050509080600101805461074e9061115f565b80601f016020809104026020016040519081016040528092919081815260200182805461077a9061115f565b80156107c75780601f1061079c576101008083540402835291602001916107c7565b820191906000526020600020905b8154815290600101906020018083116107aa57829003601f168201915b5050505050908060020160009054906101000a900460ff16908060030154908060040160009054906101000a900473ffffffffffffffffffffffffffffffffffffffff16905085565b8173ffffffffffffffffffffffffffffffffffffffff166108fc829081150290604051600060405180830381858888f19350505050158015610856573d6000803e3d6000fd5b505050565b60405180608001604052808481526020018381526020018281526020013373ffffffffffffffffffffffffffffffffffffffff1681525060036000600254815260200190815260200160002060008201518160000155602082015181600101556040820151816002015560608201518160030160006101000a81548173ffffffffffffffffffffffffffffffffffffffff021916908373ffffffffffffffffffffffffffffffffffffffff160217905550905050600060016000858152602001908152602001600020905060008390505b828110156109ae576001826005018281548110610972577f4e487b7100000000000000000000000000000000000000000000000000000000600052603260045260246000fd5b90600052602060002090602091828204019190066101000a81548160ff02191690831515021790555080806109a690611191565b91505061092c565b50600260008154809291906109c290611191565b91905055847f4f65de66b4cd3e97fb943ca503efa62b328170ad1a0aac0e9c979a164a317b3860405160405180910390a350505050565b828054610a059061115f565b90600052602060002090601f016020900481019282610a275760008555610a6e565b82601f10610a4057805160ff1916838001178555610a6e565b82800160010185558215610a6e579182015b82811115610a6d578251825591602001919060010190610a52565b5b509050610a7b9190610b25565b5090565b82805482825590600052602060002090601f01602090048101928215610b145791602002820160005b83821115610ae557835183826101000a81548160ff0219169083151502179055509260200192600101602081600001049283019260010302610aa8565b8015610b125782816101000a81549060ff0219169055600101602081600001049283019260010302610ae5565b505b509050610b219190610b25565b5090565b5b80821115610b3e576000816000905550600101610b26565b5090565b6000610b55610b5084610fe9565b610fb8565b905082815260208101848484011115610b6d57600080fd5b610b7884828561111d565b509392505050565b600082601f830112610b9157600080fd5b8135610ba1848260208601610b42565b91505092915050565b600081359050610bb981611278565b92915050565b600080600060608486031215610bd457600080fd5b600084013567ffffffffffffffff811115610bee57600080fd5b610bfa86828701610b80565b935050602084013567ffffffffffffffff811115610c1757600080fd5b610c2386828701610b80565b9250506040610c3486828701610baa565b9150509250925092565b600060208284031215610c5057600080fd5b6000610c5e84828501610baa565b91505092915050565b600080600060608486031215610c7c57600080fd5b6000610c8a86828701610baa565b9350506020610c9b86828701610baa565b9250506040610cac86828701610baa565b9150509250925092565b610cbf816110d5565b82525050565b610cce816110c3565b82525050565b610cdd816110e7565b82525050565b6000610cee82611019565b610cf88185611024565b9350610d0881856020860161112c565b610d1181611267565b840191505092915050565b6000610d29602383611024565b91507f70726f706572747920776974682074686973204944206973206e6f742061637460008301527f69766500000000000000000000000000000000000000000000000000000000006020830152604082019050919050565b6000610d8f601783611024565b91507f53656e7420696e73756666696369656e742066756e64730000000000000000006000830152602082019050919050565b6000610dcf603083611024565b91507f70726f7065727479206973206e6f7420617661696c61626c6520666f7220746860008301527f652073656c6563746564206461746573000000000000000000000000000000006020830152604082019050919050565b6000610e35601983611024565b91507f54484953204953204e4f5420594f55522050524f5045525459000000000000006000830152602082019050919050565b610e7181611113565b82525050565b600060a0820190508181036000830152610e918188610ce3565b90508181036020830152610ea58187610ce3565b9050610eb46040830186610cd4565b610ec16060830185610e68565b610ece6080830184610cb6565b9695505050505050565b60006020820190508181036000830152610ef181610d1c565b9050919050565b60006020820190508181036000830152610f1181610d82565b9050919050565b60006020820190508181036000830152610f3181610dc2565b9050919050565b60006020820190508181036000830152610f5181610e28565b9050919050565b6000602082019050610f6d6000830184610e68565b92915050565b6000608082019050610f886000830187610e68565b610f956020830186610e68565b610fa26040830185610e68565b610faf6060830184610cc5565b95945050505050565b6000604051905081810181811067ffffffffffffffff82111715610fdf57610fde611238565b5b8060405250919050565b600067ffffffffffffffff82111561100457611003611238565b5b601f19601f8301169050602081019050919050565b600081519050919050565b600082825260208201905092915050565b600061104082611113565b915061104b83611113565b9250817fffffffffffffffffffffffffffffffffffffffffffffffffffffffffffffffff0483118215151615611084576110836111da565b5b828202905092915050565b600061109a82611113565b91506110a583611113565b9250828210156110b8576110b76111da565b5b828203905092915050565b60006110ce826110f3565b9050919050565b60006110e0826110f3565b9050919050565b60008115159050919050565b600073ffffffffffffffffffffffffffffffffffffffff82169050919050565b6000819050919050565b82818337600083830152505050565b60005b8381101561114a57808201518184015260208101905061112f565b83811115611159576000848401525b50505050565b6000600282049050600182168061117757607f821691505b6020821081141561118b5761118a611209565b5b50919050565b600061119c82611113565b91507fffffffffffffffffffffffffffffffffffffffffffffffffffffffffffffffff8214156111cf576111ce6111da565b5b600182019050919050565b7f4e487b7100000000000000000000000000000000000000000000000000000000600052601160045260246000fd5b7f4e487b7100000000000000000000000000000000000000000000000000000000600052602260045260246000fd5b7f4e487b7100000000000000000000000000000000000000000000000000000000600052604160045260246000fd5b6000601f19601f8301169050919050565b61128181611113565b811461128c57600080fd5b5056fea2646970667358221220f0b362b6dcd9d8926791e34280ae1fec11933e60018160a97d736f6c81be04b064736f6c63430008000033",
  "immutableReferences": {},
  "source": "//SPDX-License-Identifier: MIT\npragma solidity ^0.8.0;\n\ncontract Airbnb {\n\n  // Property to be rented out on Airbnb\n  struct Property {\n    string name;\n    string description;\n    bool isActive; // is property active\n    uint256 price; // per day price in wei (1 ether = 10^18 wei)\n    address payable owner; // Owner of the property\n    bool[] isBooked;\n    // Is the property booked on a particular day,\n    // For the sake of simplicity, we assign 0 to Jan 1, 1 to Jan 2 and so on\n    // so isBooked[31] will denote whether the property is booked for Feb 1\n  }\n\n  uint256 public propertyId;\n\n  // mapping of propertyId to Property object\n  mapping(uint256 => Property) public properties;\n\n  // Details of a particular booking\n  struct Booking {\n    uint256 propertyId;\n    uint256 checkInDate;\n    uint256 checkoutDate;\n    address user;\n  }\n\n  uint256 public bookingId;\n\n  // mapping of bookingId to Booking object\n  mapping(uint256 => Booking) public bookings;\n\n  // This event is emitted when a new property is put up for sale\n  event NewProperty (\n    uint256 indexed propertyId\n  );\n\n  // This event is emitted when a NewBooking is made\n  event NewBooking (\n    uint256 indexed propertyId,\n    uint256 indexed bookingId\n  );\n\n  /**\n   * @dev Put up an Airbnb property in the market\n   * @param name Name of the property\n   * @param description Short description of your property\n   * @param price Price per day in wei (1 ether = 10^18 wei)\n   */\n  function rentOutproperty(string memory name, string memory description, uint256 price) public {\n    Property memory property = Property(name, description, true /* isActive */, price, payable(msg.sender) /* owner */, new bool[](365));\n\n    // Persist `property` object to the \"permanent\" storage\n    properties[propertyId] = property;\n\n    // emit an event to notify the clients\n    emit NewProperty(propertyId++);\n  }\n\n  /**\n   * @dev Make an Airbnb booking\n   * @param _propertyId id of the property to rent out\n   * @param checkInDate Check-in date\n   * @param checkoutDate Check-out date\n   */\n  function rentProperty(uint256 _propertyId, uint256 checkInDate, uint256 checkoutDate) public payable {\n    // Retrieve `property` object from the storage\n    Property storage property = properties[_propertyId];\n\n    // Assert that property is active\n    require(\n      property.isActive == true,\n      \"property with this ID is not active\"\n    );\n\n    // Assert that property is available for the dates\n    for (uint256 i = checkInDate; i < checkoutDate; i++) {\n      if (property.isBooked[i] == true) {\n        // if property is booked on a day, revert the transaction\n        revert(\"property is not available for the selected dates\");\n      }\n    }\n\n    // Check the customer has sent an amount equal to (pricePerDay * numberOfDays)\n    require(\n      msg.value == property.price * (checkoutDate - checkInDate),\n      \"Sent insufficient funds\"\n    );\n\n    // send funds to the owner of the property\n    _sendFunds(property.owner, msg.value);\n\n    // conditions for a booking are satisfied, so make the booking\n    _createBooking(_propertyId, checkInDate, checkoutDate);\n  }\n\n  function _createBooking(uint256 _propertyId, uint256 checkInDate, uint256 checkoutDate) internal {\n    // Create a new booking object\n    bookings[bookingId] = Booking(_propertyId, checkInDate, checkoutDate, msg.sender);\n\n    // Retrieve `property` object from the storage\n    Property storage property = properties[_propertyId];\n\n    // Mark the property booked on the requested dates\n    for (uint256 i = checkInDate; i < checkoutDate; i++) {\n      property.isBooked[i] = true;\n    }\n\n    // Emit an event to notify clients\n    emit NewBooking(_propertyId, bookingId++);\n  }\n\n  function _sendFunds (address payable beneficiary, uint256 value) internal {\n    // address(uint160()) is a weird solidity quirk\n    // Read more here: https://solidity.readthedocs.io/en/v0.5.10/050-breaking-changes.html?highlight=address%20payable#explicitness-requirements\n    payable(beneficiary).transfer(value);\n  }\n\n  /**\n   * @dev Take down the property from the market\n   * @param _propertyId Property ID\n   */\n  function markPropertyAsInactive(uint256 _propertyId) public {\n    require(\n      properties[_propertyId].owner == msg.sender,\n      \"THIS IS NOT YOUR PROPERTY\"\n    );\n    properties[_propertyId].isActive = false;\n  }\n}\n",
  "sourcePath": "/home/sanjeevan/Desktop/projects/airbnb2/contracts/SimpleStorage.sol",
  "compiler": {
    "name": "solc",
    "version": "0.8.0+commit.c7dfd78e.Emscripten.clang"
  },
  "schemaVersion": "3.4.7",
  "updatedAt": "2022-06-03T12:14:16.714Z",
  "networkType": "ethereum",
  "devdoc": {
    "kind": "dev",
    "methods": {
      "markPropertyAsInactive(uint256)": {
        "details": "Take down the property from the market",
        "params": {
          "_propertyId": "Property ID"
        }
      },
      "rentOutproperty(string,string,uint256)": {
        "details": "Put up an Airbnb property in the market",
        "params": {
          "description": "Short description of your property",
          "name": "Name of the property",
          "price": "Price per day in wei (1 ether = 10^18 wei)"
        }
      },
      "rentProperty(uint256,uint256,uint256)": {
        "details": "Make an Airbnb booking",
        "params": {
          "_propertyId": "id of the property to rent out",
          "checkInDate": "Check-in date",
          "checkoutDate": "Check-out date"
        }
      }
    },
    "version": 1
  },
  "userdoc": {
    "kind": "user",
    "methods": {},
    "version": 1
  }
}